:03000000020050AB
:0300230002015087
:1000500075985075892075884075A8907C007A2A1B
:090060009004FF120300020100EC
:040100000A020100EE
:10015000E599B4030312045BBC200312045BBC10DA
:10016000057440120400E599F5991204500CC299E7
:06017000C2980201753285
:10030000C2B575903812035075900812035075905D
:100310000112035575900612035075900F12035089
:0103200022BA
:0F035000DAFE7A2A22D582FDD583FD9004FF22A2
:0D040000C2B5F590D297D2B4C2B4715022AB
:10045000D2B5F590D2B4C2B47150227C0074009130
:1004600000C2B5759001D2B4C2B471552202046DB8
:00000001FF
